:100000000C94B6010C9428200C9453200C947E2060
:100010000C94A9200C94D4200C94FF200C942A2139
:100020000C9455210C94E7010C94E7010C94E70122
:100030000C94E7010C94E7010C94E7010C94E701A0
:100040000C94E7010C94E7010C94E7010C94E70190
:100050000C94E7010C94E7010C94E7010C948021C7
:100060000C94E7010C94EE240C9424250C94E701E5
:100070000C94E7010C94E7010C94E7010C94E70160
:100080000C94E7010C94E7010C94E7010C94E70150
:100090000C94E7010C94E7010C94E7010C94490FD0
:1000A0000C94E7010C94E7010C94E7010C94E70130
:1000B0000C94E7010C94E7010C94E7010C94E70120
:1000C0000C94E7010C94E7010C94E7010C94E70110
:1000D0000C94E7010C94E7010C94E7010C94E70100
:1000E0000C94E7010220CC1FD41FE01FED1F0E204F
:1000F0001B20A722AA2299229D22A322E122AE221E
:10010000B222B822BC22C022C622CA22CE22E122BA
:10011000D422D822DC22072C7AA5BA6CC590DA3B0F
:100120009365FC8BBC53F810FD3C5692834DBD8704
:100130009D3AB63DCBC9BF5BBE73DA0FC93F05A878
:100140004CCDB2D44EB93836A9020C50B99186883C
:10015000083CA6AAAA2ABE000000803F0664EC1B49
:100160003C04BC163E3BE5B93CC93C37C29E5A3DF7
:10017000660498083EEA69AAAA3E000000803F0093
:100180000C94CA220C94AA220C940E200C947A236C
:100190000C9499220C94CB030C947E100C949D2209
:1001A0000C9402200C94D41F0C94AE220C94ED1FDE
:1001B0000C94C6220C94CE220C94E1220C94582567
:1001C0000C9402050C94CC1F0C9485230C945F0EA8
:1001D0000C9427240C9405240C94651C0C94D422B4
:1001E0000C94900D0C9406050C94620D0C941B203D
:1001F0000C94380D0C94E01F0C94B8220C94BC2283
:100200000C94AF020C947A100C94A7230C94D8226F
:100210000C94B61F0C9493230C94C0220C94530D91
:100220000C944E250C94FE040C94400D0C94A722C3
:100230000C94AB250C94630D0C94B2220C94DC222C
:100240000C94A32200000A0B02090C0D0E080703F0
:100250000401000000000000000000000000000099
:10026000000000000000000000000000000000008E
:10027000121110000000000000000000000000004B
:100280000000000000000000000001021020200813
:1002900008102040102040800201020108040201E1
:1002A0000102040810204080804020100804020150
:1002B00080040201804020100804020108040201A9
:1002C0000102040810204080010204081020408030
:1002D00005050505070508080808020202020A0AC2
:1002E00008080404040401010101010101010303E0
:1002F000030303030303040707070C0C0C0C0C0C8B
:100300000C0C0202020206060606060606060B0B87
:100310000B0B0B0B0B0B0000200023002600290009
:100320002C002F003200000100000301060109012A
:1003300000002200250028002B002E003100340090
:1003400002010000050108010B010000210024004A
:1003500027002A002D0030003300010100000401B5
:1003600007010A01CB035F0E651C582511241FBE2F
:10037000CFEFD1E2DEBFCDBF00E00CBF16E0A0E0C2
:10038000B2E0ECE6FEE500E00BBF02C007900D9284
:10039000A437B107D9F728E0A4E7B6E001C01D9261
:1003A000A438B207E1F713E0CCE6D3E000E006C0E2
:1003B00022970109FE010BBF0E94AF2CC436D10762
:1003C00080E00807A9F70E949C250C94342F0C9418
:1003D00000000F93FC011382128280E592E091836A
:1003E0008083648340872187028788E083870F9119
:1003F00008951F93CF93DF93EC01162F6C8184E750
:1004000096E00E94D90DE0917406F09175066B8517
:10041000612B0190F081E02D84E796E0199584E747
:1004200096E0DF91CF911F910C945C0E1F93CF93B8
:10043000DF93EC01162F64600E94F90181E090E0E7
:100440000E942122612F6B7FCE010E94F90182E37D
:1004500090E0DF91CF911F910C9421221F93CF93B5
:10046000DF93EC01162F0E94F901612FCE01DF917D
:10047000CF911F910C941602EF92FF921F93CF938E
:10048000DF931F92CDB7DEB77C01162F607F642B00
:1004900049830E942E0280E1189FB00111244981F6
:1004A000642BC7010F90DF91CF911F91FF90EF90C8
:1004B0000C942E0240E00C943C0261E00E945A022F
:1004C00080ED97E00C94212262E00E945A0280EDB8
:1004D00097E00C942122CF93DF93CDB7DEB7289716
:1004E0000FB6F894DEBF0FBECDBF28E0EEE3F2E01A
:1004F000DE01119601900D922A95E1F7FC0121850C
:10050000241710F44FEF420FFE013196E40FF11D56
:10051000E40FF11D2081260F2068622F28960FB668
:10052000F894DEBF0FBECDBFDF91CF910C945A027D
:10053000FC016681262F246026836C600C945A028D
:10054000FC0166816E7F668368600C945A02FC0130
:100550006681262F2160268369600C945A0241E04F
:100560000E943C0281E090E00895CF93DF93EC017C
:1005700084E796E00E94CF0D1D828985823010F0BD
:1005800098E09D839A85992329F0813019F48D8113
:1005900084608D8362E370E080E090E00E94F92146
:1005A0006B85CE010E94F90168EE73E080E090E077
:1005B0000E94F92160E3CE010E942E0284E991E1BC
:1005C0000E94212260E3CE010E942E0284E991E183
:1005D0000E94212260E3CE010E942E0286E990E073
:1005E0000E94212260E2CE010E942E026D81606293
:1005F000CE010E945A0284E08E83CE010E949802AE
:10060000CE010E945D0282E08F8366E0CE010E94EF
:100610005A02CE01DF91CF910C946402DC01ED917E
:10062000FC910190F081E02D1994CF93DF93EC01C0
:1006300068E670E084E796E00E94E30D6EE070E00B
:1006400084E796E00E940E03209106023091070293
:10065000279711F4216001C0236030930702209393
:100660000602609106027091070284E796E00E94FC
:100670000E0384E796E0DF91CF910C945C0E68E660
:1006800070E084E796E00E94E30D6FE070E084E79D
:1006900096E00E940E0360E070E084E796E00E941E
:1006A0000E0384E796E00C945C0ECF93DF93EC018D
:1006B00068E670E084E796E00E94E30D6EE070E08B
:1006C00084E796E00E940E03809106029091070253
:1006D000C130D10569F02CF4CD2B89F4877E9927A0
:1006E0000AC0C230D10531F0239749F4886103C0B4
:1006F000886001C080619093070280930602609138
:1007000006027091070284E796E00E940E0384E7D8
:1007100096E0DF91CF910C945C0E6AE00E94032C6E
:1007200020E1829F900D1124892F0895982F929592
:100730009F708F702AE0929F800D1124089568E6C3
:1007400070E084E796E00E94E30D6FE070E084E7DC
:1007500096E00E940E0360E870E084E796E00E9455
:100760000E0384E796E00C945C0E68E670E084E784
:1007700096E00E94E30D6FE070E084E796E00E944F
:100780000E0360E070E084E796E00E940E0384E7C9
:1007900096E00C945C0E84E796E00C94CF0DEF92FB
:1007A000FF920F931F93CF93DF931F921F92CDB7AA
:1007B000DEB77C018B016730710549F06B30710544
:1007C00049F06115710541F447E050E005C044E08F
:1007D00050E002C043E050E068E670E084E796E055
:1007E00049835A830E94E30DB80184E796E00E9492
:1007F0000E0384E796E00E945C0E49815A8168E608
:1008000070E084E796E00E94590E0B30110541F02C
:1008100084E796E00E94400D0E949603F7018083D2
:1008200084E796E00E94400D0E949603F7018183C1
:1008300084E796E00E94400D0E949603F7018283B0
:1008400084E796E00730110519F00B30110549F4E3
:100850000E94400D0E949603F70184831582168240
:100860001FC00E94400D0E949603F701838384E716
:1008700096E00E94400D0E949603F701848384E76E
:1008800096E00E94400D0E949603F701858384E75D
:1008900096E00E94400D0E949603825EF7018683D7
:1008A0000F900F90DF91CF911F910F91FF90EF90DC
:1008B0000895CF93DF93CDB7DEB727970FB6F8949F
:1008C000DEBF0FBECDBFBC01CE0101960E94CF039B
:1008D000CE0101960E94EC0827960FB6F894DEBF71
:1008E0000FBECDBFDF91CF9108950F931F93CF938C
:1008F000DF93EC018B0168E670E084E796E00E94EC
:10090000E30DB80184E796E00E940E030B30110559
:1009100041F088810E948D03682F84E796E00E9451
:10092000900D89810E948D03682F84E796E00E94D4
:10093000900D8A810E948D03682F84E796E00E94C3
:10094000900D0730110519F00B30110511F48C8151
:100950001AC08B810E948D03682F84E796E00E9465
:10096000900D8C810E948D03682F84E796E00E9491
:10097000900D8D810E948D03682F84E796E00E9480
:10098000900D8E818E510E948D03682F84E796E032
:100990000E94900D84E796E0DF91CF911F910F9117
:1009A0000C945C0E0F931F93CF93DF93CDB7DEB7FC
:1009B00027970FB6F894DEBF0FBECDBF8A01AE01F8
:1009C0004F5F5F4F0E9415080E949F03B801CE0140
:1009D00001960E9475040E94B50327960FB6F894FD
:1009E000DEBF0FBECDBFDF91CF911F910F91089554
:1009F000FC0110821482138215820895862F642FC1
:100A00000C94E222862F642F0C941B23862F0C94C7
:100A100051234F925F926F927F928F929F92AF92EB
:100A2000BF92CF92DF92EF920F93CF93DF93EC01BF
:100A30004B013A01590102960E94F80488E592E0C0
:100A4000998388836E018CE1C80ED11C26018CE34A
:100A5000480E511CC6010E94F80486E0C80ED11C45
:100A6000C414D504B9F7FE01EE59FF4F71826082BC
:100A70003296B182A082329600833196E082379717
:100A80009182808238968AE090E0918380833296CA
:100A900084EF91E091838083339611821082719765
:100AA0001082118212821382C459DF4F1882DF91A3
:100AB000CF910F91EF90DF90CF90BF90AF909F902C
:100AC0008F907F906F905F904F9008952F923F92FC
:100AD0004F925F926F927F928F929F92AF92BF924E
:100AE000CF92DF92EF92FF920F931F93CF93DF93FA
:100AF000CDB7DEB728970FB6F894DEBF0FBECDBFD7
:100B000098878F83F12C4C0186E6880E911C0F810B
:100B100018850E591F4FD4018C91F816A0F4AF819F
:100B2000B8858D919C91F801A081B181AF0DB11D67
:100B3000FC012081318142E06C918F819885F9011F
:100B40001995F394E8CF512CEF81F885E959FF4FBF
:100B5000FA83E9830F8118850C591F4FC12CD12CC2
:100B60007601C3948F8198858E599F4F9C838B8388
:100B7000A981BA818C91581608F088C0A52CB12C97
:100B8000AF81B8858D919C91F801A081B181AA0DAA
:100B9000BB1DFC012081318141E06C918F819885E2
:100BA000F9011995AF81B8858D919C91F801A081CB
:100BB000B181AA0DBB1DFC012281338140E06C9103
:100BC0008F819885F9011995D701C601052C04C0BC
:100BD000880F991FAA1FBB1F0A94D2F79C011C0102
:100BE00020943094412CD4018C91EF81F885408180
:100BF0005181481648F5642C712CEB81FC81A08151
:100C0000B181A60DB71DFA01448155816C918F8188
:100C100098852D833E83FA011995660C771C2D81EA
:100C20003E81EF81F885E60DF71D892B29F480853B
:100C30009185822B932B04C08085918582219321FD
:100C4000918780874394CFCFF801A081B181AA0D0D
:100C5000BB1DFA012281338141E06C918F8198851F
:100C6000F9011995AF81B8858D919C91F801A0810A
:100C7000B181AA0DBB1DFC012081318140E06C9146
:100C80008F819885F9011995539472CF28960FB6E4
:100C9000F894DEBF0FBECDBFDF91CF911F910F91B2
:100CA000FF90EF90DF90CF90BF90AF909F908F908C
:100CB0007F906F905F904F903F902F900895FC0130
:100CC00080E090E0258D368D2617370739F00196A4
:100CD00036968A309105B1F78FEF9FEF0895FC01AA
:100CE000878D90A1089583599F4FFC017183608384
:100CF0000895DC0126E0629FA00DB11D112490969D
:100D00005C934E935F9721E091962C939197FC0111
:100D1000E459FF4F208131960190F081E02D22238C
:100D200031F0309749F0611107C0DC0102C0309703
:100D300019F05C968C9119940895CF92DF92FF92EE
:100D40000F931F93CF93DF931F92CDB7DEB76C0144
:100D5000F62EFC0186E0689FE00DF11D112411A222
:100D6000878D90A181309105F1F01CF4892B51F011
:100D700046C08230910599F1039709F040C040E0E8
:100D800050E031C04423D9F141E050E0C6010E9457
:100D900079060E94CA21F601E85AFF4F60837183E9
:100DA000828393832CC049830E94CA21F601E85AAA
:100DB000FF4F0081118122813381601B710B820BF7
:100DC000930B72960081118120E030E04981061773
:100DD00017072807390718F442E050E004C0411112
:100DE0000EC043E050E06F2DC6010F90DF91CF9110
:100DF0001F910F91FF90DF90CF900C9479060F9088
:100E0000DF91CF911F910F91FF90DF90CF900895C8
:100E10002F923F924F925F926F927F928F929F920A
:100E2000AF92BF92CF92DF92EF92FF920F931F93F8
:100E3000CF93DF931F92CDB7DEB71C01FC014AE0D0
:100E40008FEF9FEF278D30A1232B21F4148E968FE7
:100E5000858F11A2415036964111F4CF712C61015A
:100E600026E6C20ED11C510187E6A80EB11C410135
:100E7000A0E68A0E911C46E0442ED6018C9178168D
:100E800008F055C0612C8101070D111D070D111DC2
:100E9000085F1F4FF501E0806E1408F046C0F801AE
:100EA00040815181062C02C0569547950A94E2F77D
:100EB00041707E9C70011124E60CF11CD401ED916F
:100EC000FC91EE0DFF1D5080B701C10149830E94C6
:100ED0005F06498197FD02C0682F1BC0019619F576
:100EE000442309F180E090E060E070E0F101E80F58
:100EF000F91F248D211111C0469EF001479EF00D6F
:100F00001124E20DF31D548EF68EE58E10A2178E7D
:100F100041E0C1010E949D0606C06F5F7F4F0696AB
:100F20006A30710519F76394B5CF7394A6CF20E0AA
:100F300030E080E0F101E20FF31F91A1911181E017
:100F40002A5F3F4F2C333105A9F70F90DF91CF91E6
:100F50001F910F91FF90EF90DF90CF90BF90AF90D7
:100F60009F908F907F906F905F904F903F902F90C9
:100F70000895CF92DF92EF92FF920F931F93CF933A
:100F8000DF938C010E94CA21E801C45ADF4FC88058
:100F9000D980EA80FB806C197D098E099F09F801D0
:100FA000E859FF4FC080D180E12CF12CC616D7063E
:100FB000E806F90670F4C8010E946605C8010E949F
:100FC0000807182F0E94CA21688379838A839B832C
:100FD00001C010E0812FDF91CF911F910F91FF9001
:100FE000EF90DF90CF9008950F931F93CF93DF93EF
:100FF000EC018C0104591F4F81E0F8018083CE0180
:101000000E94B907882349F089A1882331F08F8D88
:1010100098A1019711F48C8D03C0F801108280E033
:10102000DF91CF911F910F9108956F927F928F92D0
:101030009F92AF92BF92CF92DF92EF92FF920F9367
:101040001F93CF93DF93EA012CE3C22ED12CE12C26
:10105000F12CA70196010E94372C6883CA01B901BF
:10106000A70196010E94372C6983CA01B90128E1C2
:1010700030E040E050E00E94372C49015A016A8379
:10108000CA01B9016C5F7F4F8F4F9F4F27E030E05F
:1010900040E050E00E94372C6F5F6B8300E010E06F
:1010A000980140E054E6652E712C60E9C62EDD24DF
:1010B000D394E42FF0E0EE54F84F7F0183E0E82270
:1010C000FF24E114F10489F4CF01B3010E94232C21
:1010D000892B29F08EE691E0A0E0B0E00AC0CF01B4
:1010E000B6010E94232C892BA9F38DE691E0A0E0A4
:1010F000B0E0080F191F2A1F3B1FD901C801AA27FA
:10110000BB2788169906AA06BB0610F04F5FD1CF01
:101110004E83E114F10499F4CF0164E670E00E947B
:10112000232C892B29F08EE691E0A0E0B0E00BC0E3
:10113000CF0160E971E00E94232C892BA1F38DE699
:1011400091E0A0E0B0E0081B190B2A0B3B0B801AC2
:10115000910AA20AB30ACF0164E670E00E94232C30
:101160009C01CF0160E971E00E94232CEEE5F2E0E2
:10117000A0E0A13059F4E114F10451F42115310536
:1011800011F04DE106C00097E1F302C0408101C0BB
:101190004CE150E060E070E084169506A606B706C4
:1011A00040F0841A950AA60AB70AAF5F3196AC30B0
:1011B00001F7AF5FAD8383948C82DF91CF911F9154
:1011C0000F91FF90EF90DF90CF90BF90AF909F90E6
:1011D0008F907F906F9008956F927F928F929F92E1
:1011E000AF92BF92CF92DF92EF92FF920F931F9335
:1011F000CF93DF93FC01C680AC2DB0E020E833E351
:1012000041EE51E00E949C2C4B015C0122EB37E047
:101210006D01C4E6D0E000E911E0C901825B9740AE
:101220008C159D05DCF4C90183709927892B99F4ED
:10123000C901BE010E94232C892B31F4C901B801D8
:101240000E94232C892B39F480E8880E81E5981EB2
:1012500081E0A81EB11C2F5F3F4FDFCF6580712C4E
:101260008EE4C81A88EFD80AC60164E670E00E94CE
:10127000232C8C01C60160E971E00E94232C7C01C3
:10128000C1E0D0E083E0C822DD24C615D7052CF5E7
:10129000C230D10589F4C114D10471F401151105CE
:1012A00019F4E114F10441F480E8880E8BE3981EF0
:1012B00086E2A81EB11C0FC0DE01A35ABD4FAC913F
:1012C000B0E020E831E541E050E00E949C2C860E21
:1012D000971EA81EB91E2196D8CF4181228130E0E9
:1012E000A0E1BEE00E94862C6B017C01242F30E03F
:1012F000ACE3B0E00E94862CC60ED71EE81EF91E95
:101300008081C80ED11CE11CF11CA481B0E01197B2
:1013100020E831E541E050E00E94A72CC60ED71E20
:10132000E81EF91EC80CD91CEA1CFB1CC701B6013B
:10133000DF91CF911F910F91FF90EF90DF90CF90B1
:10134000BF90AF909F908F907F906F900895FC0119
:1013500040E050E068ED71E4408351836283738321
:1013600040E050E064EA72EC4483558366837783FF
:1013700084ED9EEF9187808783E0828782E0838778
:101380008BE0848781E085878CE3868708959B01C5
:1013900077FF04C022273327261B370B213D32401D
:1013A0002CF4FC017187608781E0089580E0089546
:1013B0008F929F92AF92BF92CF92DF92EF92FF9265
:1013C0000F931F93CF93DF93EC016A017B014801D8
:1013D0005901C901B8019F7720E030E044E353E4AC
:1013E0000E94072B1816ACF020E030E044EB52E4EA
:1013F000C701B6019F770E94072B181654F0C882C8
:10140000D982EA82FB828C829D82AE82BF8281E099
:1014100001C080E0DF91CF911F910F91FF90EF907D
:10142000DF90CF90BF90AF909F908F9008959B01D9
:10143000CB0183709927892B39F4CB0164E670E0E6
:101440000E94232C892B59F4C90160E971E00E94A4
:10145000232C21E0892B09F020E0822F089581E0E0
:101460000895FB0165812481223049F470E06053C6
:10147000784F0E94170A882361F08DE10895822F2A
:101480008170283010F091E08927882321F08FE1C6
:1014900008958CE108958EE108958F929F92AF9206
:1014A000BF92CF92DF92EF92FF920F931F93CF9351
:1014B000DF938C01EB0169017A018981C80ED11C8F
:1014C000E11CF11CC701B6012CE330E040E050E024
:1014D0000E94592C49015A01F601C601D7FE04C0E9
:1014E000882799278C199D096CE370E00E94232CB2
:1014F000F7FF02C0AFEF01C0A1E09C01BB27A7FD31
:10150000B0950E947E2C645C7F4F8F4F9F4F2CE3E1
:1015100030E040E050E00E94592C69838A81880EB7
:10152000911CA11CB11CC501B40128E130E040E0D0
:1015300050E00E94592C69017A01F401C40197FE20
:1015400004C0882799278819990968E170E00E94EA
:10155000232CF7FF02C0AFEF01C0A1E09C01BB2725
:10156000A7FDB0950E947E2C685E7F4F8F4F9F4FE6
:1015700028E130E040E050E00E94592C6A838B81E2
:10158000C80ED11CE11CF11CBE01C8010E94310A29
:1015900090E0A0E0B0E08C159D05AE05BF0554F4C9
:1015A000C81AD90AEA0AFB0A81E08C0D8B838C8168
:1015B0008F5F8C831C141D041E041F044CF08C814F
:1015C00081508C83BE01C8010E94310A8C0D8B832F
:1015D0008D8190E0A0E0B0E02C81211105C02CE0CD
:1015E0002C830197A109B1092C812D3028F021E02D
:1015F0002C830196A11DB11DBC01CD016C597F4FFB
:101600008F4F9F4F24E630E040E050E00E94592C7D
:101610006D83DF91CF911F910F91FF90EF90DF903D
:10162000CF90BF90AF909F908F9008952F923F9250
:101630004F925F926F927F928F929F92AF92BF92E2
:10164000CF92DF92EF92FF920F931F93CF93DF938E
:10165000CDB7DEB76D970FB6F894DEBF0FBECDBF26
:101660001C018B014D8FDB011496FC901497FA94AA
:101670001396BC90BA94DC0114968D919D910D90B7
:10168000BC91A02D8D8B9E8BAF8BB88F21EE3EE24F
:1016900045E652E4F10160817181828193810E946B
:1016A000432969837A838B839C83FD8DF11103C069
:1016B00066E0A62E02C052E1A52E6F2D70E080E0FC
:1016C00090E00E94DE2920E030E843EF51E40E94E0
:1016D0000B2B6B017C016B2D70E080E090E00E9491
:1016E000DE299B01AC01C701B6010E94DC286B0119
:1016F0007C016A2D70E080E090E00E94DE2920E00D
:1017000030E040EC51E40E9443299B01AC01C70149
:10171000B6010E94DC2822E43DEC4CE85CE30E9428
:101720000B2B6B017C010E9440296D837E838F838C
:101730009887C701B6010E946E2B69877A878B87CD
:101740009C87A7019601C701B6010E94DC284B01C6
:101750005C010E9440296D877E878F87988BC50129
:10176000B4010E946E2B698B7A8B8B8B9C8B20E053
:1017700030E040E450E4C701B6010E940B2B6B013E
:101780007C010E9440292B013C01C701B6010E9447
:101790006E2B6B017C0124E431EC4CEC5EE36D813B
:1017A0007E818F8198850E940B2B9B01AC0164E6A2
:1017B00070EB82EE9BE30E94DB284B015C0127EE7D
:1017C00032EE4FE85DE369857A858B859C850E94C2
:1017D0000B2B9B01AC01C501B4010E94DC284B011D
:1017E0005C0126E332E74DED5BE36D857E858F85F9
:1017F00098890E940B2B9B01AC01C501B4010E948A
:10180000DB284B015C012DEB33EC4DE65AE3698993
:101810007A898B899C890E940B2B9B01AC01C501A5
:10182000B4010E94DC284B015C0127E230EC40E36C
:101830005BE3C301B2010E940B2B9B01AC01C5010C
:10184000B4010E94DB284B015C012FE83CEF41EC26
:101850005AE3C701B6010E940B2B9B01AC01C501E5
:10186000B4010E94DC284B015C0169817A818B8183
:101870009C810E9440292B013C01C501B4010E94BA
:1018800040299B01AC0169817A818B819C81298FE0
:101890003A8F4B8F5C8F0E94B62B6B017C01C50188
:1018A000B4010E94B62B4B015C01298D3A8D4B8D02
:1018B0005C8DC301B2010E940B2B9B01AC0168E857
:1018C00079E48EE69CEB0E9443292B013C01A501A3
:1018D0009401C701B6010E940B2B9B01AC01C3010F
:1018E000B2010E94DB286B017C019F7720E030E091
:1018F00040E85FE30E94072B18160CF499C0C7015B
:10190000B6010E94CD286B017C018D8D811104C030
:10191000F7FAF094F7F8F0946D897E898F89988DA5
:10192000905821EE3EE245E652E40E944329A70189
:1019300096010E94DB2820E030E040E850E40E945D
:101940000B2B21EE3EE245E652E40E940B2B20E0F9
:1019500030E044E354E40E94DC286B017C012EEA71
:1019600037ED44EF5AE36D817E818F8198850E9427
:101970000B2B22E539E44DE958E30E94DC284B01AA
:101980005C012CE233E643E05DE369857A858B8573
:101990009C850E940B2B9B01AC01C501B4010E94E8
:1019A000DB284B015C0121EC33E74FE65CE36D85FE
:1019B0007E858F8598890E940B2B9B01AC01C50108
:1019C000B4010E94DB284B015C0128E431E547E2C9
:1019D0005DE369897A898B899C890E940B2B9B0125
:1019E000AC01C501B4010E94DB2824E13EE245E6DA
:1019F00053E40E940B2B9B01AC01C701B6010E946E
:101A0000DB280E94AB29D10118962D913C911997A2
:101A1000260F371FF801128211821082442737FDEA
:101A20004095542FB801C1010E944D0A81E001C0C8
:101A300080E06D960FB6F894DEBF0FBECDBFDF918C
:101A4000CF911F910F91FF90EF90DF90CF90BF90BB
:101A5000AF909F908F907F906F905F904F903F904E
:101A60002F90089541E00C94160B40E00C94160B57
:101A70008091A40690E02091A506821B910908950B
:101A80002091A5068091A406281750F4E22FF0E0DB
:101A9000EA55F94F808190E02F5F2093A5060895C5
:101AA0008FEF9FEF0895E091A5068091A406E817B7
:101AB00030F4F0E0EA55F94F808190E008958FEF1F
:101AC0009FEF08950895CF92DF92EF92FF920F93C8
:101AD0001F93CF93DF937C01CB018A012091800675
:101AE000222389F0EB016B01C40ED51ECC15DD0558
:101AF00069F06991D701ED91FC910190F081E02DA1
:101B0000C7011995F3CF642F0E94200FC801DF9100
:101B1000CF911F910F91FF90EF90DF90CF9008959C
:101B2000CF93DF931F92CDB7DEB7698320918006F4
:101B30002223D1F020918106203240F021E030E0D4
:101B4000FC013383228380E090E015C080918206FF
:101B5000E82FF0E0ED57F94F998190838F5F8093E4
:101B600082068093810605C061E0CE0101960E9445
:101B7000200F81E090E00F90DF91CF910895FC015C
:101B80001382128248EE53E060E070E04483558394
:101B9000668377838EE692E0918380830895109226
:101BA000A5061092A40610928206109281060C944B
:101BB000630E81E0809380066093A30610928206F4
:101BC0001092810608950C94D90D0F93062F21E0F1
:101BD0004091810663E876E08091A3060E94C90ED9
:101BE0001092820610928106109280060F9108953D
:101BF0008F929F92AF92BF92CF92DF92EF92FF921D
:101C00000F931F93CF93DF93EC01F62ED42E480150
:101C10005901EE2019F10E94D90D1E2D143008F043
:101C200013E01150B8F0E881F98128E0129FB0016B
:101C30001124A501940104C0569547953795279521
:101C40006A95D2F7CA01B9010190F081E02DCE0169
:101C50001995E7CF60E0CE010E94E50D4D2D413290
:101C600008F040E22C2D66EA76E08F2D0E94810E6E
:101C70001092A5068093A406DF91CF911F910F913A
:101C8000FF90EF90DF90CF90BF90AF909F908F909C
:101C90000895CF92EF920F931F93C22EE12C00E094
:101CA00010E098010E94F80D1F910F91EF90CF90D6
:101CB000089521E00C94490E61E00C94E50D84E751
:101CC00096E00C94BF0D1092330781E080933107AA
:101CD0001092300761E084E10E941B2361E085E1FE
:101CE0000E941B23E9EBF0E080818E7F808380815E
:101CF0008D7F808388E48093B80085E48093BC0066
:101D00000895413208F043C0909133079111FCCF00
:101D100091E090933307209331072FEF2093C6066D
:101D200010920B07240F20930A079093320790918B
:101D30003207880F892B80933207809130078130DA
:101D400061F410923007809132078093BB0080913C
:101D5000BC0083FDF8CF85EC01C085EE8093BC000C
:101D6000809133078130E1F380910B07841710F4E1
:101D700040910B072CE037E0FB01D9018A2F821B31
:101D8000841718F48D918193F9CF842F089580E002
:101D900008950F93413208F04AC090913307911192
:101DA000FCCF92E090933307009331079FEF90931D
:101DB000C60610920B0740930A07FB016CE077E020
:101DC000DB019A2F961B941718F491919D93F9CFEC
:101DD0001092320790913207880F892B8093320737
:101DE00080913007813061F4109230078091320782
:101DF0008093BB008091BC0083FDF8CF85EC01C0CF
:101E000085EE8093BC00222321F08091330782303D
:101E1000E1F38091C6068F3F61F08091C606803263
:101E200051F08091C606803341F483E007C081E021
:101E300005C080E003C082E001C084E00F910895F6
:101E4000613298F420913307243089F46093E806D6
:101E5000FC018AEE96E0DC012A2F281B261718F4D5
:101E600021912D93F9CF80E0089581E0089582E0DB
:101E7000089585ED8093BC008091BC0084FDFCCF6B
:101E800010923307089585EC8093BC0010923307BD
:101E900008951F920F920FB60F9211240BB60F9256
:101EA0002F933F934F935F936F937F938F939F9362
:101EB000AF93BF93EF93FF938091B900887F8036F3
:101EC00009F49EC078F5883209F45DC090F4803141
:101ED00009F456C038F4882309F4F5C0883009F4B1
:101EE0004FC0F5C0883109F44EC0803209F45FC09C
:101EF000EEC0803409F46AC058F4803309F457C046
:101F0000883309F0E4C08093C6060E94430FDFC007
:101F1000803509F44FC0883509F45DC0883409F074
:101F2000D6C0D3C0883909F4C4C0A8F4883709F4EE
:101F300067C038F4883609F463C0803709F460C09C
:101F4000C6C0883809F4B5C0803909F45FC080384C
:101F500009F0BDC05BC0803B09F483C038F4803A0F
:101F600009F466C0883A09F47CC0B1C0803C09F429
:101F7000A4C0883C09F4A1C0883B09F487C0A7C06D
:101F80008091320710C090910B0780910A07981733
:101F900070F5E0910B0781E08E0F80930B07F0E066
:101FA000E45FF84F80818093BB0085EC83C0809311
:101FB000C6068BC0E0910B0781E08E0F80930B0764
:101FC0008091BB00F0E0E45FF84F808390910B07B5
:101FD00080910A076BC0E0910B0781E08E0F809320
:101FE0000B078091BB00F0E0E45FF84F80838091A5
:101FF000310781116AC081E08093300784EA5EC0B6
:1020000083E0809333071092C706CFCF8091C70635
:10201000803208F04EC0E091C70681E08E0F8093B9
:10202000C7068091BB00F0E0E853F94F8083BDCF35
:102030000E94430F8091C706803230F4E091C706BA
:10204000F0E0E853F94F10826091C70670E0E0912C
:102050002C07F0912D0788EC96E019951092C70691
:1020600036C084E0809333071092E9061092E806A8
:10207000E0912E07F0912F0719958091E8068111C4
:1020800005C081E08093E8061092EA06E091E90637
:1020900081E08E0F8093E906F0E0E651F94F8081F0
:1020A0008093BB009091E9068091E806981708F4A8
:1020B0007CCF85E88093BC000AC085EC8093BC008F
:1020C0001092330704C01092C6060E94390FFF9188
:1020D000EF91BF91AF919F918F917F916F915F91A0
:1020E0004F913F912F910F900BBE0F900FBE0F900D
:1020F0001F90189581E08093D9070895CF93C82F3A
:1021000084E397E00E946F06029731F4C53711F01F
:10211000C43611F4C093B207CF9108950F931F9363
:10212000CF93DF93CDB7DEB765970FB6F894DEBFD8
:102130000FBECDBF96E0E6E4F2E0DE0150960190DE
:102140000D929A95E1F78B8B6C8B4D8BCE0101969E
:102150000E94A70980912C0290912D022CE3289FC8
:10216000B001299F700D1124CE0101960E94C7096C
:1021700003EC15EF2CE031EC48E451EE68E272E438
:10218000CE0101960E94D809BE01605F7F4FCE014B
:1021900001960E94320D2A892093D5078989809360
:1021A000D60790E03CE3239F800D911D112490936E
:1021B000D4078093D307BE01605F7F4FCE010196A5
:1021C0000E94350D2A892093D80789898093D707E3
:1021D00090E03CE3239F800D911D11249093D20742
:1021E0008093D10765960FB6F894DEBF0FBECDBFC2
:1021F000DF91CF911F910F9108956AE772E083EE0E
:1022000097E00C941626EF92FF920F931F93CF93B3
:10221000DF93CDB7DEB72C970FB6F894DEBF0FBEB5
:10222000CDBF95ECE92E97E0F92E00E010E0C80153
:102230000E940E2F90E0F701819391937F010F5F31
:102240001F4F0630110599F70E94FD104AE066E025
:1022500070E0CE0107960E9425286AE972E0CE015F
:1022600001960E946527BE01695F7F4FCE010196EE
:102270000E94912866EA72E00E94A428BC0183EEC5
:1022800097E00E940426CE0101960E94F726CE0117
:1022900007960E94F72689EBE82E87E0F82EC80102
:1022A0000E940E2F90E0F701819391937F010F5FC1
:1022B0001F4F0C30110599F70E94FD104AE06CE0A9
:1022C00070E0CE0107960E9425286AE972E0CE01EF
:1022D00001960E946527BE01695F7F4FCE0101967E
:1022E0000E94912866EA72E00E94A428BC0183EE55
:1022F00097E00E940426CE0101960E94F726CE01A7
:1023000007960E94F7262C960FB6F894DEBF0FBEF4
:10231000CDBFDF91CF911F910F91FF90EF90089566
:10232000EF92FF920F931F93CF93DF93CDB7DEB75A
:102330002C970FB6F894DEBF0FBECDBF35ECE32E61
:1023400037E0F32E00E010E0F7016081F2E0EF0EDD
:10235000F11CC8010E94162F0F5F1F4F0630110598
:1023600099F70E94FD104AE066E070E0CE01079602
:102370000E94F9276AEC72E0CE0101960E9465275F
:10238000BE01695F7F4FCE0101960E94912868EDE2
:1023900072E00E94A428BC0183EE97E00E9404260C
:1023A000CE0101960E94F726CE0107960E94F726DD
:1023B00029EBE22E27E0F22EF7016081F2E0EF0E2A
:1023C000F11CC8010E94162F0F5F1F4F0C30110522
:1023D00099F70E94FD104AE06CE070E0CE0107968C
:1023E0000E94F9276AEC72E0CE0101960E946527EF
:1023F000BE01695F7F4FCE0101960E9491286FEF69
:1024000072E00E94A428BC0183EE97E00E9404269B
:10241000CE0101960E94F726CE0107960E94F7266C
:102420002C960FB6F894DEBF0FBECDBFDF91CF91D3
:102430001F910F91FF90EF900895CF93DF93CDB749
:10244000DEB72C970FB6F894DEBF0FBECDBF4AE0C3
:10245000BC01CE0107960E94F92766E273E0CE0127
:1024600001960E946527BE01695F7F4FCE010196EC
:102470000E949128BC0183EE97E00E940426CE01C1
:1024800001960E94F726CE0107960E94F7262C9609
:102490000FB6F894DEBF0FBECDBFDF91CF91089588
:1024A0000E94FD106BE573E083EE97E00E94162614
:1024B0000E94FD108091B7079091B8072091D30733
:1024C0003091D407821793073CF02091D1073091C7
:1024D000D2078217930744F060E773E083EE97E03A
:1024E0000E94162661E007C066E773E083EE97E07E
:1024F0000E94162660E086E30E941B238091C50798
:102500009091C607019709F092C06CE773E083EEE3
:1025100097E00E9416262091C7073091C807809146
:10252000D1079091D207281739070CF03FC062E815
:1025300073E083EE97E00E9416262091B707309152
:10254000B8078091D1079091D207281739071CF05E
:1025500068E873E060C06EE873E083EE97E00E9485
:1025600016262091B7073091B8078091D307909134
:10257000D40728173907BCF464E973E083EE97E0C9
:102580000E9416262091B7073091B8078091C7079F
:102590009091C807281739071CF46AE973E03BC01B
:1025A00060EA73E046C066EA73E043C06CEA73E039
:1025B00083EE97E00E9416262091C7073091C80746
:1025C0008091D1079091D20782179307D4F562EBDF
:1025D00073E083EE97E00E9416262091B7073091B2
:1025E000B8078091D1079091D20728173907E4F0F6
:1025F00069EB73E083EE97E00E9416262091B707FF
:102600003091B8078091C7079091C80728173907FC
:1026100044F460EC73E083EE97E00E94162661E0DC
:102620000DC067EC73E005C06EEC73E002C065EDB1
:1026300073E083EE97E00E94162660E087E30E9435
:102640001B238091B9079091BA07019709F07FC0C9
:102650006CED73E083EE97E00E9416262091BB0795
:102660003091BC078091D3079091D40782179307CC
:102670000CF042C062EE73E083EE97E00E941626F3
:102680002091B7073091B8078091D3079091D40774
:10269000281739071CF468EE73E025C06EEE73E06E
:1026A00083EE97E00E9416262091B7073091B80775
:1026B0008091BB079091BC0728173907D4F064EFCD
:1026C00073E083EE97E00E9416262091B7073091C1
:1026D000B8078091D1079091D207281739070CF4D9
:1026E00040C06AEF73E083EE97E00E94162661E037
:1026F00035C060E074E02DC066E074E083EE97E0E2
:102700000E9416262091B7073091B8078091BB0729
:102710009091BC0728173907BCF06CE074E083EE99
:1027200097E00E9416262091B7073091B807809154
:10273000D3079091D407281739071CF462E174E09D
:10274000D2CF69E174E005C060E274E002C067E2E4
:1027500074E083EE97E00E94162660E088E30C9414
:102760001B230895EF920F93CF93DF93CDB7DEB77E
:1027700027970FB6F894DEBF0FBECDBF9EE4940F2F
:102780009F836E838D832B830A83E9824093250286
:102790005093260260932A0280932B0220932702F3
:1027A00000932802CE0101960E94EC0840E050E020
:1027B0000E94D20481E090E00E94550327960FB654
:1027C000F894DEBF0FBECDBFDF91CF910F91EF9098
:1027D00008958F929F92AF92BF92CF92DF92EF9225
:1027E000FF92CF93DF93CDB7DEB72E970FB6F89455
:1027F000DEBF0FBECDBF80E090E00E9459044B01C8
:102800005C0187E090E00E9459046B017C01AE01FD
:10281000485F5F4FC501B4010E941508AE014F5FCC
:102820005F4FC701B6010E9415088A85A7E2B2E092
:102830008C938985E8E2F2E080838E8590E08E5467
:10284000984F90932602809325028D8580932A02CB
:102850008C8580932B028B85809329022C9180811B
:1028600090E03CE3239F800D911D11249093B807C5
:102870008093B7072E960FB6F894DEBF0FBECDBF7C
:10288000DF91CF91FF90EF90DF90CF90BF90AF900E
:102890009F908F90089560912B0270E04AE050E085
:1028A00083EE97E00E94CB266EE274E083EE97E021
:1028B0000E94F72560912A0270E04AE050E083EE22
:1028C00097E00E94CB266EE274E083EE97E00E94D0
:1028D000F72560912502709126024AE050E083EED0
:1028E00097E00E94CB2663E075E083EE97E00E94BC
:1028F000F7256091270270E04AE050E083EE97E010
:102900000E94CB2660EB75E083EE97E00E94F725EE
:10291000809128028A3028F460E383EE97E00E94D9
:10292000F925609128024AE050E083EE97E00C948C
:10293000E026CF93DF93CDB7DEB72C970FB6F89490
:10294000DEBF0FBECDBFBC014AE0CE016A307105CB
:10295000E0F407960E94252867EB73E0CE0101960C
:102960000E946527BE01695F7F4FCE0101960E94DC
:102970009128BC0186EA97E00E94E925CE010196E4
:102980000E94F726CE0107960CC001960E942528CA
:10299000BE016F5F7F4F86EA97E00E94E925CE0176
:1029A00001960E94F7262C960FB6F894DEBF0FBE54
:1029B000CDBFDF91CF91089586EA97E00E945D0236
:1029C00060E374E086EA97E00E94F7258091C507EE
:1029D0009091C607009731F46EE374E086EA97E0C1
:1029E0000C94F725019721F562E474E086EA97E0FC
:1029F0000E94F72541E061E086EA97E00E946B02C1
:102A000065E474E086EA97E00E94F7258091C907A3
:102A10009091CA070E94991460EB75E086EA97E0EE
:102A20000E94F7258091CB079091CC070C949914C4
:102A30008AE090E00C941D1286EA97E00E945D0205
:102A40006EE474E086EA97E00E94F7258091B9076A
:102A50009091BA07009719F46EE374E022C00197D1
:102A600021F562E474E086EA97E00E94F72541E0F0
:102A700061E086EA97E00E946B028091BD07909129
:102A8000BE070E94991460EB75E086EA97E00E9409
:102A9000F7258091BF079091C0070E9499146CE5BB
:102AA00074E086EA97E00C94F7258AE090E00C94B5
:102AB0001D12CF93DF93CDB7DEB72C970FB6F894E6
:102AC000DEBF0FBECDBF40E060E086EA97E00E9427
:102AD0006B0280912B0290E00E9499146EE274E0E8
:102AE00086EA97E00E94F72580912A0290E00E94F2
:102AF00099146EE274E086EA97E00E94F7256091EF
:102B0000250270912602605D77404AE0CE01019671
:102B10000E94F927BE016F5F7F4F86EA97E00E940F
:102B2000E925CE0101960E94F72640E06BE086EA97
:102B300097E00E946B028091D5078A3030F467EBF2
:102B400073E086EA97E00E94F7254AE06091D50796
:102B5000CE0107960E94CC27BE01695F7F4FCE0150
:102B600001960E94922760EB75E0CE0101960E94CB
:102B7000A428BC0186EA97E00E94E925CE010196CF
:102B80000E94F726CE0107960E94F7268091D6076D
:102B90008A3030F467EB73E086EA97E00E94F7250D
:102BA0004AE06091D607CE0101960E94CC27BE0173
:102BB0006F5F7F4F86EA97E00E94E925CE0101967C
:102BC0000E94F72641E061E086EA97E00E946B02EE
:102BD00080912702609127024AE08A30A0F4CE015A
:102BE00007960E94CC2767EB73E0CE0101960E9406
:102BF0006527BE01695F7F4FCE0101960E94912833
:102C000060EB75E00FC0CE0107960E94CC27BE0195
:102C1000695F7F4FCE0101960E94922760EB75E0BD
:102C2000CE0101960E94A428BC0186EA97E00E948A
:102C3000E925CE0101960E94F726CE0107960E9453
:102C4000F72680912802609128024AE08A30E8F451
:102C5000CE0107960E94CC2767EB73E0CE01019668
:102C60000E946527BE01695F7F4FCE0101960E94D9
:102C70009128BC0186EA97E00E94E925CE010196E1
:102C80000E94F726CE0107960DC0CE0101960E9444
:102C9000CC27BE016F5F7F4F86EA97E00E94E9254F
:102CA000CE0101960E94F72641E06BE086EA97E0AC
:102CB0000E946B028091D8078A3030F467EB73E092
:102CC00086EA97E00E94F7254AE06091D807CE0196
:102CD00007960E94CC27BE01695F7F4FCE01019607
:102CE0000E94922760EB75E0CE0101960E94A42815
:102CF000BC0186EA97E00E94E925CE0101960E9478
:102D0000F726CE0107960E94F7268091D7078A30D2
:102D100030F467EB73E086EA97E00E94F7254AE01B
:102D20006091D707CE0101960E94CC27BE016F5F4C
:102D30007F4F86EA97E00E94E925CE0101960E9426
:102D4000F7262C960FB6F894DEBF0FBECDBFDF91ED
:102D5000CF91089586EA97E00E945D028091B507C1
:102D60009091B607009759F48091B3079091B407FA
:102D7000892B11F40C94591581E090E06FC08130DB
:102D80009105F1F58091B3079091B407009779F41C
:102D900064E674E086EA97E00E94F72541E060E08F
:102DA00086EA97E00E946B026CE674E011C0813005
:102DB000910591F46BE774E086EA97E00E94F725AD
:102DC00041E060E086EA97E00E946B026AE874E006
:102DD00086EA97E00C94F725029779F46AE974E0A3
:102DE00086EA97E00E94F72541E060E086EA97E0F6
:102DF0000E946B0269EA74E0EBCF82E090E02EC0A3
:102E0000029751F58091B3079091B4070097C1F4F0
:102E100069EB74E086EA97E00E94F72541E060E004
:102E200086EA97E00E946B0261EC74E086EA97E024
:102E30000E94F72542E060E086EA97E00C946B027E
:102E40008130910511F40C94DC14029711F40C9468
:102E50001C1583E090E002C086E090E00C941D1207
:102E60000F93CF93DF93CDB7DEB727970FB6F894C4
:102E7000DEBF0FBECDBF425B4F836E838D832B833E
:102E80000A831982CE0101960E94EC0847E050E0C7
:102E90000E94D20487E090E00E94150327960FB6A7
:102EA000F894DEBF0FBECDBFDF91CF910F91089593
:102EB000EF920F93CF93DF93CDB7DEB7A4970FB602
:102EC000F894DEBF0FBECDBF809128028B3308F08F
:102ED00087C0009128022091270260912A028091E8
:102EE0002B020F5F4091250250912602E12C0E9497
:102EF00030176091280270E06F5F7F4F4AE0CE018B
:102F000001960E94F927609127024AE0CE010796B8
:102F10000E94CC2760912502709126024AE0CE01E2
:102F20000D960E94F92760912A024AE0CE0143964D
:102F30000E94CC2760912B024AE0CE014F960E945E
:102F4000CC2760ED74E0CE0149960E946527BE0152
:102F5000615E7F4FCE0149960E9491286EE274E037
:102F60000E94A428BE016D5E7F4F0E9491286EE2F0
:102F700074E00E94A428BE01635F7F4F0E949128E5
:102F800063E075E00E94A428BE01695F7F4F0E9444
:102F9000912860EB75E00E94A428BE016F5F7F4F0F
:102FA0000E949128BC0183EE97E00E940426CE0186
:102FB00049960E94F726CE014F960E94F726CE0131
:102FC00043960E94F726CE010D960E94F726CE0169
:102FD00007960E94F726CE0101960E94F72653C05D
:102FE000809128028B3309F04EC0809127028731EF
:102FF00070F42091270260912A0280912B022F5FAA
:103000004091250250912602E12C00E03AC08091C7
:1030100027028731C1F590912B02E0912A02F0E05E
:10302000EF5EFD4F8081409125025091260298135A
:1030300020C080912A028C30A1F44F5F5F4FE12CB9
:1030400000E020E061E081E00E94301780912502DD
:1030500090912602019683709927892B39F18CE192
:1030600026C060912A026F5FE12C00E020E081E041
:1030700008C060912A0280912B02E12C00E020E040
:103080008F5F0E94301780912702811113C08091B9
:10309000280281110FC060912A0280912B02409179
:1030A0002502509126020E948E1004C08DE180936B
:1030B0001302E9CFA4960FB6F894DEBF0FBECDBFC2
:1030C000DF91CF910F91EF9008950E94FD1069EE6E
:1030D00074E083EE97E00E9416260E94FD1065E0E2
:1030E00075E083EE97E00E94F7258091A50788237D
:1030F00019F060E175E002C067E175E083EE97E0EA
:103100000E94162660E275E083EE97E00E94F725A4
:103110008091A407882319F060E175E002C067E19F
:1031200075E083EE97E00E9416266BE275E083EE71
:1031300097E00E94F7258091A307882319F060E1AA
:1031400075E002C067E175E083EE97E00E94162605
:103150000E94FD1066E676E083EE97E00C9416265A
:10316000EF920F9383EE97E00E9400260E94FD10DD
:1031700066E375E083EE97E00E9416260E94FD103C
:103180000E94E9130E943F030E9450120E945817A8
:10319000009128022091270260912A0280912B023F
:1031A00040912502509126027AE3E72E0E94B21345
:1031B0000E944B140F91EF900C9465186EE770E12C
:1031C00084E397E00E94730686EA97E00E94B502C6
:1031D00026E040E051EE60E070E083EE97E00E9470
:1031E0008C2466E575E086EA97E00E94F72566E59F
:1031F00075E083EE97E00E94162668EE73E080E0AB
:1032000090E00E94F92161E08DE00E94E22261E0FD
:103210008DE00E941B2361E086E30E94E22261E0D0
:1032200087E30E94E22261E088E30E94E22260E0FC
:1032300086E30E941B2360E087E30E941B2360E07B
:1032400088E30E941B230E9403110E94E9136091EE
:103250002A0280912B0240912502509126020E9461
:103260008E100E943F0342E050E06AE770E180E088
:103270000E94B71F0E94B0180E94591586EA97E075
:103280000E945D020E94591563E675E083EE97E0A7
:103290000C94162684E397E00C94F407CF93DF9305
:1032A00040E06DE086EA97E00E946B0286EA97E0D4
:1032B0000E94A702C1E0D0E08091B2078F3611F1E1
:1032C0000E944A198093B207843611F08537A1F71E
:1032D0008091B9079091BA07009729F4D093BA0763
:1032E000C093B90706C0019721F41092BA07109253
:1032F000B9070E941C1540E06DE086EA97E00E9445
:103300006B02DACF8091B9079091BA07019709F063
:103310007BC041E061E086EA97E00E946B02809109
:10332000B2078F3609F44CC00E944A198093B20745
:103330002091BD073091BE07853731F42731310523
:1033400074F72F5F3F4F07C0843649F712161306F4
:1033500034F7215031093093BE072093BD0741E077
:1033600061E086EA97E00E946B028091BD07909130
:10337000BE070E949914CDCF843649F18091B207DF
:103380008F3671F10E944A198093B2078537A1F7F1
:103390008091BF079091C0078B3391057CF7019610
:1033A0009093C0078093BF0741E064E086EA97E00E
:1033B0000E946B028091BF079091C0070E949914F0
:1033C00041E064E086EA97E00E946B02D7CF8091EB
:1033D000BF079091C0071816190684F60197E0CF31
:1033E0002091BD073091BE074CE3429FC001439F2F
:1033F000900D11242091BF073091C007820F931FB9
:103400009093BC078093BB070E94FD1065E775E0B1
:1034100083EE97E00E9416260E94B01886EA97E095
:10342000DF91CF910C94A0021F93CF93DF936DE8AF
:1034300075E083EE97E00E94162640E06DE086EA94
:1034400097E00E946B0286EA97E00E94A702C1E023
:10345000D0E010E38091B2078F3621F10E944A1923
:103460008093B207843611F08537A1F78091C507A4
:103470009091C607009729F4D093C607C093C5075B
:1034800006C0019721F41092C6071092C507109349
:10349000B2070E94DC1440E06DE086EA97E00E94EB
:1034A0006B02D8CF8091C5079091C607019709F0AC
:1034B0007CC041E069E086EA97E00E946B0280915F
:1034C000B2078F3641F10E944A198093B2072091CA
:1034D000C9073091CA07853731F4273131057CF7A8
:1034E0002F5F3F4F07C0843651F7121613063CF783
:1034F000215031093093CA072093C90741E069E0A0
:1035000086EA97E00E946B028091C9079091CA07F2
:103510000E949914CECF41E064E086EA97E00E94D1
:103520006B028091B2078F3661F10E944A19809335
:10353000B207853749F48091CB079091CC078B3344
:1035400091057CF701960AC0843659F78091CB0724
:103550009091CC071816190624F701979093CC0781
:103560008093CB0741E06CE086EA97E00E946B0213
:103570008091CB079091CC070E94991441E06CE0B8
:10358000CCCF2091C9073091CA074CE3429FC001BC
:10359000439F900D11242091CB073091CC07820FCF
:1035A000931F9093C8078093C7070E9490110E94B1
:1035B000FD1065E775E083EE97E00E9416260E94F5
:1035C000B01886EA97E0DF91CF911F910C94A0028A
:1035D000AF92BF92CF92DF92EF920F93CF93DF9390
:1035E000CDB7DEB7A4970FB6F894DEBF0FBECDBF40
:1035F000A0902702B12CC0902802D12C80E38093A8
:10360000B20786EA97E00E945D026BE975E086EA00
:1036100097E00E94F72541E060E086EA97E00E948B
:103620006B026CEA75E086EA97E00E94F72586EA6D
:1036300097E00E94A70241E06BE086EA97E00E94D3
:103640006B02C5010E94991460EB75E086EA97E071
:103650000E94F725C6010E94991441E06CE086EAB9
:1036600097E00E946B028091B2078F36A9F10E9409
:103670004A198093B207853741F487E1A816B1044F
:1036800090F78FEFA81AB80A08C0843671F4A11415
:10369000B10449F381E0A81AB10841E06BE086EA81
:1036A00097E00E946B02C501D6CF8336E1F686EA29
:1036B00097E00E945D0286EA97E00E94A00262EB1A
:1036C00075E086EA97E00E94F72568EE73E080E0F7
:1036D00090E00E94F921EAC041E060E086EA97E0CC
:1036E0000E946B026CEB75E086EA97E00E94F7257A
:1036F00041E06FE086EA97E00E946B028091B2079A
:103700008F3619F10E944A198093B207853741F428
:103710008BE3C816D10490F78FEFC81AD80A08C0F7
:10372000843681F4C114D10449F381E0C81AD10868
:1037300041E06EE086EA97E00E946B02C6010E94BB
:103740009914D6CF8336D1F6B2CF86EA97E00E949D
:103750005D0286EA97E00E94A00260912A028091B1
:103760002B024091250250912602E12C0C2D2A2D8E
:103770000E94B2134AE0B601CE0101960E942528AC
:103780004AE0B501CE0107960E94252860912502E6
:10379000709126024AE0CE010D960E94F9276091B1
:1037A0002A024AE0CE0143960E94CC2760912B0268
:1037B0004AE0CE014F960E94CC2764EC75E0CE0122
:1037C00049960E946527BE01615E7F4FCE014996F2
:1037D0000E9491286FE20E94BE28BE016D5E7F4F5D
:1037E0000E9491286FE20E94BE28BE01635F7F4F56
:1037F0000E94912869E00E94BE28BE01695F7F4F48
:103800000E9491286AE30E94BE28BE016F5F7F4F2D
:103810000E949128BC0183EE97E00E940426CE010D
:1038200049960E94F726CE014F960E94F726CE01B8
:1038300043960E94F726CE010D960E94F726CE01F0
:1038400007960E94F726CE0101960E94F72640E0D7
:1038500061E086EA97E00E946B0265ED75E086EA1A
:1038600097E00E94F72541E063E086EA97E00E9436
:103870006B02C5010E94991460EB75E086EA97E03F
:103880000E94F725C6010E94991460ED77E080E060
:1038900090E00E94F9210E94B01886EA97E00E9409
:1038A0005D0280E38093B2070E945915A4960FB67B
:1038B000F894DEBF0FBECDBFDF91CF910F91EF9097
:1038C000DF90CF90BF90AF900895EF920F9300E0FC
:1038D00024E044E167E286EA97E00E94E901E4E03F
:1038E000EE2E01E028E032E04CE052E06DE072E0C4
:1038F00084E397E00E9409050F91EF9008958F925D
:103900009F92AF92BF92CF92DF92EF920F931F934D
:10391000CF93DF93CDB7DEB7A4970FB6F894DEBF91
:103920000FBECDBFA0902502B0902602C0902A0203
:1039300090902B0286EA97E00E945D0264EE75E0AB
:1039400086EA97E00E94F72586EA97E00E94A702A0
:1039500041E060E086EA97E00E946B0265EF75E067
:1039600086EA97E00E94F72560E086EA97E00E94E9
:10397000AF0261EC75E086EA97E00E94F72541E02E
:103980006CE086EA97E00E946B024AE0B501CE0146
:1039900001960E942528BE016F5F7F4F86EA97E05F
:1039A0000E94E925CE0101960E94F72641E06FE0D2
:1039B00086EA97E00E946B0280E38093B2078091D1
:1039C000B2078F3609F44EC00E944A198093B2079D
:1039D000853749F484E3A81688E0B80680F78FEFAE
:1039E000A81AB80A0AC0843631F583EBA81687E016
:1039F000B80628F381E0A81AB10841E06CE086EA35
:103A000097E00E946B024AE0B501CE0101960E9448
:103A10002528BE016F5F7F4F86EA97E00E94E92567
:103A2000CE0101960E94F72641E06FE086EA97E01A
:103A30000E946B02C4CF833611F686EA97E00E949B
:103A40005D0286EA97E00E94A00262EB75E086EADA
:103A500097E00E94F72568EE73E080E090E00E9416
:103A6000F92187C1D12C80E38093B20786EA97E0E1
:103A70000E945D0264EE75E086EA97E00E94F725F9
:103A800041E060E086EA97E00E946B0267EF75E034
:103A900086EA97E00E94F72541E06EE086EA97E02B
:103AA0000E946B02C6010E94991441E06FE086EA11
:103AB00097E00E946B0286EA97E00E94A70280913D
:103AC000B2078F3651F10E944A198093B2078537A9
:103AD00041F48CE0C816D10490F78FEFC81AD80AC9
:103AE00009C08436B9F482E0C816D10440F381E0FD
:103AF000C81AD10841E06EE086EA97E00E946B02A6
:103B0000C6010E94991441E06FE086EA97E00E94A6
:103B10006B02D5CF833699F690CF82E0C816D104D8
:103B200029F4950123703327232B29F0F601EF5E4A
:103B3000FD4F008101C00DE110E0892D90E04801AA
:103B40008017910708F44C0180E38093B20786EA5E
:103B500097E00E945D0264EE75E086EA97E00E94BD
:103B6000F72541E060E086EA97E00E946B026DEF86
:103B700075E086EA97E00E94F72541E06EE086EA6C
:103B800097E00E946B02C4010E94991441E06FE02B
:103B900086EA97E00E946B0286EA97E00E94A702FD
:103BA0008091B2078F3649F10E944A198093B2077B
:103BB000853739F48016910698F78FEF881A980A9E
:103BC00009C08436B9F482E08816910448F381E094
:103BD000881A910841E06EE086EA97E00E946B0245
:103BE000C4010E94991441E06FE086EA97E00E94C8
:103BF0006B02D6CF8336A1F620CF86EA97E00E94EB
:103C00005D0286EA97E00E94A002009128022091BE
:103C10002702E12CA5016C2D882D0E94B213609122
:103C200028024AE0CE0101960E94CC27609127022B
:103C30004AE0CE0107960E94CC274AE0B501CE01AA
:103C40000D960E9425284AE0B601CE0143960E94B7
:103C500025284AE0B401CE014F960E94252863E052
:103C600076E0CE0149960E946527BE01615E7F4FD6
:103C7000CE0149960E9491286FE20E94BE28BE01A3
:103C80006D5E7F4F0E9491286FE20E94BE28BE01A8
:103C9000635F7F4F0E94912869E00E94BE28BE01A9
:103CA000695F7F4F0E9491286AE30E94BE28BE018F
:103CB0006F5F7F4F0E949128BC0183EE97E00E94C6
:103CC0000426CE0149960E94F726CE014F960E9407
:103CD000F726CE0143960E94F726CE010D960E944C
:103CE000F726CE0107960E94F726CE0101960E9484
:103CF000F72640E061E086EA97E00E946B0265EDFE
:103D000075E086EA97E00E94F72541E062E086EAE6
:103D100097E00E946B02C4010E9499146EE274E065
:103D200086EA97E00E94F725C6010E9499146EE288
:103D300074E086EA97E00E94F725C5010E94991475
:103D400060912A0280912B02409125025091260217
:103D50000E948E1060ED77E080E090E00E94F921F3
:103D600086EA97E00E945D020E94B01880E380938B
:103D7000B207A4960FB6F894DEBF0FBECDBFDF9199
:103D8000CF911F910F91EF90DF90CF90BF90AF90A8
:103D90009F908F9008958091B5079091B6078130DC
:103DA000910569F48091B3079091B4078130910532
:103DB00011F40C94E81A029789F40C947F1C029772
:103DC00069F48091B3079091B4078130910511F4A3
:103DD0000C94141A029711F40C944E1908958091C2
:103DE000B3079091B4072091B2070097A9F5243644
:103DF00071F48091B5079091B6078230910508F073
:103E000052C0892B09F44FC082E090E01DC02537D5
:103E100051F48091B5079091B6078230910508F46E
:103E200042C0019711C0233629F41092B6071092B0
:103E3000B50739C02F36B9F58091B5079091B6070F
:103E4000892B39F481E090E09093B6078093B50711
:103E50002AC081E090E010C0243699F4E091B507C3
:103E6000F091B607EE0FFF1FE15EFD4F208131811B
:103E700082179307C0F401969093B4078093B30719
:103E800012C0253729F48230910568F00197F4CFEC
:103E9000233629F41092B4071092B30704C02F36CA
:103EA00011F40E94CB1E0C94AA16CF93DF93CDB7CA
:103EB000DEB72C970FB6F894DEBF0FBECDBF0E94C1
:103EC0004A198093B207882309F1682FCE0107961B
:103ED0000E94B32765E176E0CE0101960E94652736
:103EE000BE01695F7F4FCE0101960E949128BC01FF
:103EF00083EE97E00E940426CE0101960E94F726E9
:103F0000CE0107960E94F7260E94EF1E2091D90746
:103F10008091B5079091B607892B41F4222331F0A7
:103F20001092D9070E94B0180E9459158091B507C8
:103F30009091B607892B89F48091B3079091B407CB
:103F4000892B59F40E944A198093B207882329F0DB
:103F50000E94EF1E80E38093B2072C960FB6F89470
:103F6000DEBF0FBECDBFDF91CF9108950895883099
:103F700008F06DC0E82FF0E0EE0FFF1FE25DFD4F8F
:103F80007183608390E0FC013197E730F10590F593
:103F9000EE58FF4F0C94782C809169008C7F842B15
:103FA00080936900E89A089580916900440F551F35
:103FB000440F551F837F842B80936900E99A0895ED
:103FC0008091690074E0440F551F7A95E1F78F7C6A
:103FD000842B80936900EA9A08958091690066E0D5
:103FE000440F551F6A95E1F78F73842B8093690006
:103FF000EB9A089580916A008C7F842B80936A00ED
:10400000EC9A089580916A00440F551F440F551F84
:10401000837F842B80936A00ED9A089580916A00D3
:1040200024E0440F551F2A95E1F78F7C842B809361
:104030006A00EE9A089580916A0096E0440F551F39
:104040009A95E1F78F73842B80936A00EF9A089515
:104050001F920F920FB60F9211240BB60F922F934F
:104060003F934F935F936F937F938F939F93AF9300
:10407000BF93EF93FF93E0913202F09133021995D1
:10408000FF91EF91BF91AF919F918F917F916F9130
:104090005F914F913F912F910F900BBE0F900FBEEC
:1040A0000F901F9018951F920F920FB60F92112428
:1040B0000BB60F922F933F934F935F936F937F9322
:1040C0008F939F93AF93BF93EF93FF93E09134024D
:1040D000F09135021995FF91EF91BF91AF919F91AA
:1040E0008F917F916F915F914F913F912F910F90A1
:1040F0000BBE0F900FBE0F901F9018951F920F923E
:104100000FB60F9211240BB60F922F933F934F933C
:104110005F936F937F938F939F93AF93BF93EF932F
:10412000FF93E0913602F09137021995FF91EF91DC
:10413000BF91AF919F918F917F916F915F914F91BF
:104140003F912F910F900BBE0F900FBE0F901F90BD
:1041500018951F920F920FB60F9211240BB60F9263
:104160002F933F934F935F936F937F938F939F937F
:10417000AF93BF93EF93FF93E0913802F091390230
:104180001995FF91EF91BF91AF919F918F917F9181
:104190006F915F914F913F912F910F900BBE0F90B8
:1041A0000FBE0F901F9018951F920F920FB60F928F
:1041B00011240BB60F922F933F934F935F936F93FE
:1041C0007F938F939F93AF93BF93EF93FF93E09170
:1041D0002E02F0912F021995FF91EF91BF91AF91AF
:1041E0009F918F917F916F915F914F913F912F910F
:1041F0000F900BBE0F900FBE0F901F9018951F923F
:104200000F920FB60F9211240BB60F922F933F937C
:104210004F935F936F937F938F939F93AF93BF93CE
:10422000EF93FF93E0913002F09131021995FF91E5
:10423000EF91BF91AF919F918F917F916F915F911E
:104240004F913F912F910F900BBE0F900FBE0F908B
:104250001F9018951F920F920FB60F9211240BB654
:104260000F922F933F934F935F936F937F938F930F
:104270009F93AF93BF93EF93FF93E0913A02F09136
:104280003B021995FF91EF91BF91AF919F918F9153
:104290007F916F915F914F913F912F910F900BBE46
:1042A0000F900FBE0F901F9018951F920F920FB690
:1042B0000F9211240BB60F922F933F934F935F935E
:1042C0006F937F938F939F93AF93BF93EF93FF93DE
:1042D000E0913C02F0913D021995FF91EF91BF9161
:1042E000AF919F918F917F916F915F914F913F918E
:1042F0002F910F900BBE0F900FBE0F901F9018952F
:104300001F920F920FB60F9211242F933F938F930A
:104310009F93AF93BF938091DB079091DC07A091AF
:10432000DD07B091DE073091DA0723E0230F2D3748
:1043300020F40196A11DB11D05C026E8230F0296A9
:10434000A11DB11D2093DA078093DB079093DC0752
:10435000A093DD07B093DE078091DF079091E0071F
:10436000A091E107B091E2070196A11DB11D8093D4
:10437000DF079093E007A093E107B093E207BF91B6
:10438000AF919F918F913F912F910F900FBE0F9002
:104390001F9018952FB7F8946091DB077091DC0798
:1043A0008091DD079091DE072FBF08953FB7F89405
:1043B0008091DF079091E007A091E107B091E207BB
:1043C00026B5A89B05C02F3F19F00196A11DB11D70
:1043D0003FBF6627782F892F9A2F620F711D811D8D
:1043E000911D42E0660F771F881F991F4A95D1F7EC
:1043F0000895CF92DF92EF92FF92CF93DF936B01FC
:104400007C010E94D621EB01C114D104E104F10426
:1044100089F00E94CC280E94D6216C1B7D0B683E3F
:10442000734090F381E0C81AD108E108F108C8513F
:10443000DC4FEACFDF91CF91FF90EF90DF90CF90EC
:1044400008958230910538F0880F991F880F991FC1
:1044500005970197F1F70895789484B5826084BD3B
:1044600084B5816084BD85B5826085BD85B5816078
:1044700085BDEEE6F0E0808181608083E1E8F0E0D8
:104480001082808182608083808181608083E0E807
:10449000F0E0808181608083E1EBF0E080818460E6
:1044A0008083E0EBF0E0808181608083E1E9F0E0EF
:1044B000808182608083808181608083E0E9F0E098
:1044C000808181608083E1EAF0E080818260808386
:1044D000808181608083E0EAF0E080818160808378
:1044E000E1E2F1E08081826080838081816080836D
:1044F000E0E2F1E0808181608083EAE7F0E08081A2
:1045000084608083808182608083808181608083F9
:104510008081806880831092C100089590E0FC0142
:104520003197E231F10508F04CC0E758FF4F0C9489
:10453000782C809180008F7703C0809180008F7DE0
:1045400080938000089580918000877FF9CF84B5A3
:104550008F7702C084B58F7D84BD08958091B000AF
:104560008F7703C08091B0008F7D8093B000089555
:10457000809190008F7707C0809190008F7D03C05D
:1045800080919000877F8093900008958091A00093
:104590008F7707C08091A0008F7D03C08091A0001D
:1045A000877F8093A0000895809120018F7707C0B6
:1045B000809120018F7D03C080912001877F8093AF
:1045C00020010895CF93DF9390E0FC01E657FD4F63
:1045D0002491FC01E053FD4F8491882349F190E040
:1045E000880F991FFC01E65BFC4FA591B491805D9B
:1045F0009C4FFC01C591D4919FB7611108C0F894FC
:104600008C91209582238C93888182230AC062300A
:1046100051F4F8948C91322F309583238C938881B8
:10462000822B888304C0F8948C91822B8C939FBF3B
:10463000DF91CF9108950F931F93CF93DF931F9234
:10464000CDB7DEB7282F30E0F901EC5BFD4F849148
:10465000F901E657FD4F1491F901E053FD4F049124
:104660000023C9F0882321F069830E948E2269818A
:10467000E02FF0E0EE0FFF1FE05DFC4FA591B4913D
:104680009FB7F8948C91611103C01095812301C0EC
:10469000812B8C939FBF0F90DF91CF911F910F9132
:1046A0000895CF93DF93282F30E0F901EC5BFD4FA5
:1046B0008491F901E657FD4FD491F901E053FD4F84
:1046C000C491CC2391F081110E948E22EC2FF0E056
:1046D000EE0FFF1FEA5EFC4FA591B4912C912D23A4
:1046E00081E090E021F480E002C080E090E0DF9182
:1046F000CF910895FC01818D228D90E0805C9F4FC9
:10470000821B91098F7399270895FC01918D828DE9
:10471000981731F0828DE80FF11D858D90E0089596
:104720008FEF9FEF0895FC01918D828D981761F0B6
:10473000828DDF01A80FB11D5D968C91928D9F5FD8
:104740009F73928F90E008958FEF9FEF08958EE40E
:1047500095E2892B41F080E090E0892B21F00E94C6
:104760004E25811125C080E090E0892B41F080E04A
:1047700090E0892B21F00E94000081111CC080E094
:1047800090E0892B41F080E090E0892B21F00E949D
:104790000000811113C080E090E0892BA1F080E03F
:1047A00090E0892B81F00E94000081110AC00895D9
:1047B0000E940000D8CF0E940000E1CF0E940000BC
:1047C000EACF0C9400000895FC01848DDF01A80F4E
:1047D000B11DA35ABF4F2C91848D90E001968F7329
:1047E0009927848FA689B7892C93A089B1898C9148
:1047F00080648C93938D848D981306C00288F3890E
:10480000E02D80818F7D80830895CF93DF93EC012D
:10481000888D8823C9F0EA89FB89808185FD05C0E0
:10482000A889B9898C9186FD0FC00FB607FCF5CF1A
:10483000808185FFF2CFA889B9898C9185FFEDCF62
:10484000CE010E94E423E7CFDF91CF910895CF926C
:10485000DF92FF920F931F93CF93DF931F92CDB7F9
:10486000DEB76C0181E0D60158968C9358975B9621
:104870009C915B975C968C915C97981307C05096BF
:10488000ED91FC915197808185FD2EC0F601038D3D
:1048900010E00F5F1F4F0F731127F02EF601848D6C
:1048A000F81211C00FB607FCF9CFD6015096ED9162
:1048B000FC915197808185FFF1CFC60169830E94E9
:1048C000E4236981EBCF838DE80FF11DE35AFF4F9D
:1048D0006083D6015B960C935B975296ED91FC91A9
:1048E0005397808180620CC0D6015696ED91FC9161
:1048F000579760835096ED91FC9151978081806429
:10490000808381E090E00F90DF91CF911F910F9114
:10491000FF90DF90CF900895BF92CF92DF92EF92F9
:10492000FF92CF93DF93EC016A017B01B22EE889FD
:10493000F98982E08083411581EE58076105710590
:10494000A1F060E079E08DE390E0A70196010E947C
:10495000372C215031094109510956954795379512
:104960002795211580E1380798F0E889F9891082A8
:1049700060E874E88EE190E0A70196010E94372C70
:104980002150310941095109569547953795279589
:10499000EC85FD853083EE85FF852083188EEC89BC
:1049A000FD89B082EA89FB89808180618083EA8900
:1049B000FB89808188608083EA89FB8980818068A7
:1049C0008083EA89FB8980818F7D8083DF91CF910D
:1049D000FF90EF90DF90CF90BF9008951F920F92BD
:1049E0000FB60F9211240BB60F922F938F939F93B4
:1049F000EF93FF93E091F307F091F4078081E0914A
:104A0000F907F091FA0782FD12C090818091FC07AE
:104A10008F5F8F732091FD07821751F0E091FC07A3
:104A2000F0E0ED51F84F958F8093FC0701C0808135
:104A3000FF91EF919F918F912F910F900BBE0F904F
:104A40000FBE0F901F9018951F920F920FB60F92E6
:104A500011240BB60F922F933F934F935F936F9355
:104A60007F938F939F93AF93BF93EF93FF9383EEC7
:104A700097E00E94E423FF91EF91BF91AF919F9146
:104A80008F917F916F915F914F913F912F910F90F7
:104A90000BBE0F900FBE0F901F90189583EE97E0FE
:104AA0000E947A2321E0892B09F420E0822F0895C7
:104AB0001092E6071092E50788EE93E0A0E0B0E0E0
:104AC0008093E7079093E807A093E907B093EA077C
:104AD00088E596E09093E4078093E30785EC90E007
:104AE0009093F0078093EF0784EC90E09093F207A7
:104AF0008093F10780EC90E09093F4078093F307A4
:104B000081EC90E09093F6078093F50782EC90E0BB
:104B10009093F8078093F70786EC90E09093FA075C
:104B20008093F9071092FC071092FD071092FE0780
:104B30001092FF07089508950E942C220E949B2541
:104B40000E94DE18C7EAD3E20E94551F2097E1F3C6
:104B50000E94A723F9CFCF92DF92EF92FF920F939B
:104B60001F93CF93DF937C016A01EB0100E010E01B
:104B70000C151D0571F06991D701ED91FC91019023
:104B8000F081E02DC7011995892B19F00F5F1F4F98
:104B9000EFCFC801DF91CF911F910F91FF90EF9060
:104BA000DF90CF9008956115710581F0DB010D90C4
:104BB0000020E9F7AD0141505109461B570BDC01BC
:104BC000ED91FC910280F381E02D199480E090E05A
:104BD0000895DC01ED91FC91DB0114964D915C91FF
:104BE00015976D917C910280F381E02D19940C94BE
:104BF000D325DC01ED91FC910190F081E02D199419
:104C000064E676E00C94D3250F931F93CF93DF9344
:104C1000EC010E94E9258C01CE010E940026800F44
:104C2000911FDF91CF911F910F9108950F931F93C3
:104C3000CF93DF93EC010E94D3258C01CE010E941B
:104C40000026800F911FDF91CF911F910F91089542
:104C50008F929F92AF92BF92CF92DF92EF92FF928C
:104C60000F931F93CF93DF93CDB7DEB7A1970FB606
:104C7000F894DEBF0FBECDBF7C01C42EE52FCB0163
:104C8000D22E19A221E02D1510F02AE0D22E8E018D
:104C90000F5D1F4F8D2C912CA12CB12C6C2D7E2FD4
:104CA000A50194010E94372C8C2DD29E80191124CD
:104CB000015011098A3014F4805D01C0895CF8014B
:104CC0008083211531054105510521F0C22EE32FC6
:104CD000CA01E4CFB801C7010E94D325A1960FB63F
:104CE000F894DEBF0FBECDBFDF91CF911F910F9122
:104CF000FF90EF90DF90CF90BF90AF909F908F90FC
:104D00000895CF92DF92EF92FF920F931F93CF936C
:104D1000DF93EC016A017B012115310579F4E8810B
:104D2000F9810190F081E02D642FDF91CF911F91E7
:104D30000F91FF90EF90DF90CF9019942A303105BA
:104D4000E9F477FF1AC06DE20E94F9258C0144272F
:104D50005527BA014C195D096E097F092AE0CE0179
:104D60000E942826800F911FDF91CF911F910F91F4
:104D7000FF90EF90DF90CF9008952AE0B701A60151
:104D8000CE01DF91CF911F910F91FF90EF90DF90B7
:104D9000CF900C9428269A01AB01662757FD6095A9
:104DA000762F0C9481262115310541F4DC01ED911B
:104DB000FC910190F081E02D642F19940C94282629
:104DC0000F931F93CF93DF93EC019A01462F50E08E
:104DD00060E070E00E94D3268C01CE010E94002684
:104DE000800F911FDF91CF911F910F910895FC01CA
:104DF000808191810C944B2DCF93DF93EC018881BE
:104E00009981009711F00E944B2D198218821D8202
:104E10001C821B821A82DF91CF9108950F931F93FA
:104E2000CF93DF93EC018B016F5F7F4F8881998176
:104E30000E94DA2D009731F0998388831B830A83BF
:104E400081E001C080E0DF91CF911F910F91089523
:104E5000CF93DF93EC0188819981892B29F08A8196
:104E60009B818617970760F4CE010E940E27882346
:104E700041F08C819D81892B19F4E881F9811082A0
:104E800081E0DF91CF910895EF92FF920F931F93EE
:104E9000CF93DF93EC017B018A01BA010E9428279E
:104EA000811104C0CE010E94FC2607C01D830C8323
:104EB000B701888199810E94CC2ECE01DF91CF91DC
:104EC0001F910F91FF90EF900895FC0111821082C5
:104ED00013821282158214826115710559F0FB014B
:104EE00001900020E9F7AF0141505109461B570BD3
:104EF0000C9444270895CF93DF93EC01FB018617B0
:104F0000970761F0608171816115710529F0448115
:104F100055810E94442702C00E94FC26CE01DF91E9
:104F2000CF910895FC0111821082138212821582A2
:104F300014820C947B27CF93DF93EC0161157105EC
:104F400061F0FB0101900020E9F7AF0141505109E8
:104F5000461B570B0E94442702C00E94FC26CE012C
:104F6000DF91CF910895CF93DF931F921F92CDB71A
:104F7000DEB7FC0111821082138212821582148224
:104F800069831A82BE016F5F7F4F0E949B270F903B
:104F90000F90DF91CF9108950F931F93CF93DF93DD
:104FA000CDB7DEB729970FB6F894DEBF0FBECDBFE1
:104FB0008C01862FF80111821082138212821582D1
:104FC000148250E0BE016F5F7F4F90E00E94E92E97
:104FD000BE016F5F7F4FC8010E949B2729960FB6C5
:104FE000F894DEBF0FBECDBFDF91CF911F910F911F
:104FF00008950F931F93CF93DF93CDB7DEB76297DA
:105000000FB6F894DEBF0FBECDBF8C01CB01F80107
:1050100011821082138212821582148250E0BE0126
:105020006F5F7F4F0E94D32EBE016F5F7F4FC8011D
:105030000E949B2762960FB6F894DEBF0FBECDBFCD
:10504000DF91CF911F910F9108950F931F93CF93ED
:10505000DF93CDB7DEB761970FB6F894DEBF0FBE12
:10506000CDBF8C01CB01F801118210821382128214
:105070001582148250E0BE016F5F7F4F0E94E92EBF
:10508000BE016F5F7F4FC8010E949B2761960FB6DC
:10509000F894DEBF0FBECDBFDF91CF911F910F916E
:1050A0000895EF92FF920F931F93CF93DF93EC013C
:1050B0007B010C811D816115710511F480E016C022
:1050C0004115510591F0040F151FB8010E942827C2
:1050D0008823A1F3288139818C819D81B701820FBA
:1050E000931F0E94CC2E1D830C8381E0DF91CF9112
:1050F0001F910F91FF90EF900895CF93DF931F9230
:105100001F92CDB7DEB769831A8241E050E0BE013D
:105110006F5F7F4F0E9451280F900F90DF91CF91CA
:105120000895CF93DF93EC01FB01448155816081A9
:1051300071810E945128811103C0CE010E94FC267A
:10514000CE01DF91CF910895CF93DF93EC016115EC
:10515000710569F0FB0101900020E9F7AF014150B2
:105160005109461B570B0E945128811103C0CE01E3
:105170000E94FC26CE01DF91CF910895CF93DF935B
:10518000EC010E947D28811103C0CE010E94FC2603
:10519000CE01DF91CF91089508959F939F7749D1D4
:1051A0000F9000203AF49058A2EA2AED3FE049E43B
:1051B00050E413D0E1C15058BB27AA270ED0DCC160
:1051C000A5D130F0AAD120F031F49F3F11F41EF4A4
:1051D00075C10EF4E095E7FB6BC1E92FEFD180F3C9
:1051E000BA17620773078407950718F071F49EF5E4
:1051F00007C20EF4E0950B2EBA2FA02D0B01B901BA
:1052000090010C01CA01A0011124FF27591B99F03C
:10521000593F50F4503E68F11A16F040A22F232F48
:10522000342F4427585FF3CF469537952795A79598
:10523000F0405395C9F77EF41F16BA0B620B730B3F
:10524000840BBAF09150A1F0FF0FBB1F661F771FB0
:10525000881FC2F70EC0BA0F621F731F841F48F465
:10526000879577956795B795F7959E3F08F0B3CFEB
:105270009395880F08F09927EE0F979587950895D5
:1052800054D1E3958AC10CD077C147D140F03ED1CB
:1052900030F021F45F3F19F00BC15111B2C10EC1C2
:1052A0008DD198F39923C9F35523B1F3951B550B71
:1052B000BB27AA2762177307840738F09F5F5F4FE9
:1052C000220F331F441FAA1FA9F333D00E2E3AF02A
:1052D000E0E830D091505040E695001CCAF729D044
:1052E000FE2F27D0660F771F881FBB1F2617370793
:1052F0004807AB07B0E809F0BB0B802DBF01FF27C3
:1053000093585F4F2AF09E3F510568F0D1C079C194
:105310005F3FECF3983EDCF3869577956795B795FC
:10532000F7959F5FC9F7880F911D9695879597F917
:105330000895E1E0660F771F881FBB1F6217730790
:105340008407BA0720F0621B730B840BBA0BEE1FA5
:1053500088F7E095089504D06894B11152C108957A
:1053600035D188F09F5790F0B92F9927B751A0F009
:10537000D1F0660F771F881F991F1AF0BA95C9F7E9
:1053800012C0B13081F03CD1B1E0089539C1672F2E
:10539000782F8827B85F39F0B93FCCF38695779599
:1053A0006795B395D9F73EF4909580957095619582
:1053B0007F4F8F4F9F4F0895E89409C097FB3EF4AD
:1053C00090958095709561957F4F8F4F9F4F992352
:1053D000A9F0F92F96E9BB279395F69587957795D0
:1053E0006795B795F111F8CFFAF4BB0F11F460FF90
:1053F0001BC06F5F7F4F8F4F9F4F16C0882311F0E8
:1054000096E911C0772321F09EE8872F762F05C0FB
:10541000662371F096E8862F70E060E02AF09A9596
:10542000660F771F881FDAF7880F9695879597F98B
:105430000895DF93CF931F930F938B01EC01E6E167
:10544000F1E03FD099D09801AE018B01EC0160E012
:1054500070E080E89FE3AFDE4BD19801AE010F9181
:105460001F91CF91DF91E3C0990F0008550FAA0B50
:10547000E0E8FEEF16161706E807F907C0F0121667
:105480001306E407F50798F0621B730B840B950B6A
:1054900039F40A2661F0232B242B252B21F40895BF
:1054A0000A2609F4A140A6958FEF811D811D08955C
:1054B00097F99F6780E870E060E008959FEF80ECC7
:1054C0000895DF93CF931F930F93FF92EF92DF9294
:1054D0007B018C01689405C0DA2EEF01A8D0FE0193
:1054E000E894A5912591359145915591AEF3EF0141
:1054F00074DEFE019701A801DA9479F7DF90EF904E
:10550000FF900F911F91CF91DF91089500240A948D
:105510001616170618060906089500240A9412168E
:105520001306140605060895C9CF50D0E8F3E89491
:10553000E0E0BB279F57F0F02AED3FE049EC06C0C2
:10554000EE0FBB0F661F771F881F28F0B23A620765
:105550007307840728F0B25A620B730B840BE39530
:105560009A9572F7803830F49A95BB0F661F771FB3
:10557000881FD2F790481CC1092E0394000C11F427
:10558000882352F0BB0F40F4BF2B11F460FF04C01E
:105590006F5F7F4F8F4F9F4F0895EF93E0FF06C0DF
:1055A000A2EA2AED3FE049EC5FEB17DEE5DF0F9062
:1055B000039401FC9058EEE3F1E00DC157FD9058C3
:1055C000440F551F59F05F3F71F04795880F97FBC7
:1055D000991F61F09F3F79F0879508951216130681
:1055E0001406551FF2CF4695F1DF08C016161706B0
:1055F0001806991FF1CF86957105610508940895E5
:10560000E894BB2766277727CB0197F908952CDF0D
:1056100008F48FEF08950BD0AFCF78DF28F07DDF4F
:1056200018F0952309F044CF49CF1124EACFC6DF03
:10563000A0F3959FD1F3950F50E0551F629FF001A5
:10564000729FBB27F00DB11D639FAA27F00DB11DFE
:10565000AA1F649F6627B00DA11D661F829F222787
:10566000B00DA11D621F739FB00DA11D621F839F0E
:10567000A00D611D221F749F3327A00D611D231FE4
:10568000849F600D211D822F762F6A2F11249F5732
:1056900050408AF0E1F088234AF0EE0FFF1FBB1F55
:1056A000661F771F881F91505040A9F79E3F5105F4
:1056B00070F0FECEA6CF5F3FECF3983EDCF386950C
:1056C00077956795B795F795E7959F5FC1F7FE2B9F
:1056D000880F911D9695879597F908959F9325DFDB
:1056E0000F9007FCEE5F59CF11F40EF4E7CE5EC0C9
:1056F0006DDFD0F39923D9F3CEF39F57550B87FF76
:1057000063D00024A0E640EA900180585695979512
:1057100028F4805C660F771F881F20F02617370754
:10572000480730F4621B730B840B202931294A2B64
:10573000A69517940794202531254A2758F7660F18
:10574000771F881F20F026173707480730F4620BB1
:10575000730B840B200D311D411DA09581F7B901FC
:10576000842F9158880F969587950895DF93D92FA8
:10577000DCDEE695D7952AED3FE049E45FE3B33AF6
:105780006207730784079507D7952AF0A2EA49ECC8
:10579000906823DDF1DEECE5F1E01DD0DD0F0BF0CC
:1057A0002BD0DD0F0BF49058DF9108959F3F31F01F
:1057B000915020F4879577956795B795880F911D3F
:1057C0009695879597F9089591505040660F771FE9
:1057D000881FD2F708959F938F937F936F93FF93C2
:1057E000EF939B01AC0117DFEF91FF916ADE2F91E0
:1057F0003F914F915F910FCF9B01AC0160E070E052
:1058000080E89FE340CD991B79E004C0991F96176B
:1058100008F0961B881F7A95C9F780950895AA1BF2
:10582000BB1B51E107C0AA1FBB1FA617B70710F08B
:10583000A61BB70B881F991F5A95A9F780959095BD
:10584000BC01CD01089597FB072E16F4009407D0F4
:1058500077FD09D00E940F2C07FC05D03EF49095EF
:1058600081959F4F0895709561957F4F0895A1E2AE
:105870001A2EAA1BBB1BFD010DC0AA1FBB1FEE1FCA
:10588000FF1FA217B307E407F50720F0A21BB30B15
:10589000E40BF50B661F771F881F991F1A9469F791
:1058A00060957095809590959B01AC01BD01CF01ED
:1058B0000895052E97FB1EF400940E94702C57FD4E
:1058C00007D00E94372C07FC03D04EF40C94702CA8
:1058D00050954095309521953F4F4F4F5F4F08951C
:1058E00090958095709561957F4F8F4F9F4F08954C
:1058F000EE0FFF1F0590F491E02D19940E94862C65
:10590000332312F48A1B9B0B0C94972CA29FB0019B
:10591000B39FC001A39F700D811D1124911DB29FE3
:10592000700D811D1124911D08950E94862CB7FFD2
:105930000895821B930B08950E94862CA59F900DBD
:10594000B49F900DA49F800D911D11240895B7FF61
:105950000C949C2C0E949C2C821B930B0895079006
:10596000F691E02D1994CF93DF938230910510F4D6
:1059700082E090E0E0918208F091830820E030E03E
:10598000A0E0B0E0309739F14081518148175907C4
:10599000B8F04817590771F482819381109729F064
:1059A00013969C938E9312972CC0909383088093A8
:1059B000820827C02115310531F04217530718F02E
:1059C000A901DB0101C0EF019A01BD01DF010280E5
:1059D000F381E02DD7CF21153105F9F0281B390BC4
:1059E0002430310580F48A819B816115710521F095
:1059F000FB019383828304C0909383088093820881
:105A0000FE01329644C0FE01E20FF31F8193919391
:105A100022503109398328833AC02091800830917F
:105A20008108232B41F4209102023091030230932C
:105A300081082093800820910002309101022115F5
:105A4000310541F42DB73EB7409104025091050253
:105A5000241B350BE0918008F0918108E217F307D1
:105A6000A0F42E1B3F0B2817390778F0AC014E5FCE
:105A70005F4F2417350748F04E0F5F1F5093810882
:105A8000409380088193919302C0E0E0F0E0CF0161
:105A9000DF91CF910895CF93DF93009709F487C0EA
:105AA000FC01329713821282C0918208D091830840
:105AB000209781F420813181280F391F809180083F
:105AC000909181088217930779F5F0938108E0930C
:105AD00080086DC0DE0120E030E0AE17BF0750F453
